:020000040800F2
:100000009804002041180008510A0008530A00080B
:10001000570A00085B0A00085F0A00080000000099
:10002000000000000000000000000000630A00085B
:10003000650A000800000000670A00085918000857
:100040005B1800085B1800085B1800085B180008C4
:100050005B1800085B1800085B1800085B180008B4
:100060005B1800085B1800085B1800085B180008A4
:100070005B1800085B1800085B1800085B18000894
:100080005B1800085B1800085B180008BF0B00082D
:10009000611400085B1800085B1800085B18000872
:1000A0005B1800085B1800085B1800085B18000864
:1000B0005B1800085B1800085B1800085B18000854
:1000C0005B1800085B1800085B1800085B18000844
:1000D0005B1800085B1800085B1800085B18000834
:1000E0005B1800085B1800085B1800085B18000824
:1000F0005B1800085B1800085B1800085B18000814
:100100005B1800085B1800085B1800085B18000803
:100110005B1800085B1800085B1800085B180008F3
:100120005B1800085B1800085B1800085B180008E3
:100130005B1800085B1800085B1800085B180008D3
:100140005B1800085B1800085B1800085B180008C3
:100150005B1800085B1800085B1800085B180008B3
:100160005B1800085B1800085B1800085B180008A3
:100170005B1800085B1800085B1800085B18000893
:100180005B1800085B180008DFF80CD002F0C8FD0F
:10019000004800479D0100089804002000244FF407
:1001A000A06001F05FFB00F088FC01F06DFA01F047
:1001B0008FFA4FF40051FE4802F0A8F94FF4804145
:1001C000FB4802F0A3F94FF40041F94802F09EF910
:1001D0004FF4FA7000F048FC4FF40051F44802F07C
:1001E00093F94FF48041F24802F08EF94FF4004148
:1001F000EF4802F089F94FF4FA7000F035FC002165
:10020000084600F0EAFC4FF4FA7000F02DFC0023E1
:1002100064220121184601F08CF8C82000F032FC5D
:10022000002364220221184601F083F8C82000F060
:1002300029FC002364220321184601F07AF8C82023
:1002400000F020FC002364220421184601F071F81C
:10025000C82000F017FC002364220521184601F095
:1002600068F8C82000F00EFC00236422062118461E
:1002700001F05FF8C82000F005FC012200210846CB
:1002800000F0F5FC4FF4FA7000F0EEFB0020C949D5
:1002900008801DE0642000F0E7FB4FF40051C448E3
:1002A00002F034F9C348B0F900200121002000F029
:1002B00028FDC048008800F5FA7000B2BD490880EA
:1002C0000846B0F9000040F6B831884200DD00E091
:1002D000E0E700BF40F6B830B64908801BE0642074
:1002E00000F0C2FB4FF40051B14802F00DF9B148E3
:1002F000B0F900200121002000F003FDAD48008886
:10030000A0F5FA7000B2AB4908800846B0F90000C9
:10031000002800DA00E0E2E700BF0020A5490880DD
:100320001DE0642000F0A0FB4FF48041A04802F0E3
:10033000EDF8A048B0F900200221002000F0E1FC17
:100340009C48008800F5FA7000B29A490880084677
:10035000B0F9000040F6B831884200DD00E0E0E787
:1003600000BF40F6B830934908801BE0642000F0DD
:100370007BFB4FF480418E4802F0C6F88D48B0F9FF
:1003800000200221002000F0BCFC8A480088A0F573
:10039000FA7000B2874908800846B0F900000028CA
:1003A00000DA00E0E2E700BF0020824908801DE09B
:1003B000642000F059FB4FF400417D4802F0A6F89C
:1003C0007C48B0F900200321002000F09AFC794815
:1003D000008800F5FA7000B2764908800846B0F946
:1003E000000040F6B831884200DD00E0E0E700BFE1
:1003F00040F6B8306F4908801BE0642000F034FB01
:100400004FF400416A4802F07FF86A48B0F90020D2
:100410000321002000F075FC66480088A0F5FA7002
:1004200000B2644908800846B0F90000002800DAEC
:1004300000E0E2E700BF00205E49088022E064207F
:1004400000F012FB4FF40051594802F05FF84FF4EE
:100450008041574802F05AF85648B0F9002004216C
:10046000002000F04EFC5348008800F5FA7000B2FE
:10047000504908800846B0F9000040F6B83188427B
:1004800000DD00E0DBE700BF40F6B83049490880F6
:1004900020E0642000F0E8FA4FF40051444802F0F4
:1004A00033F84FF48041424802F02EF84148B0F949
:1004B00000200421002000F024FC3E480088A0F524
:1004C000FA7000B23B4908800846B0F900000028E5
:1004D00000DA00E0DDE700BF00203649088022E0B6
:1004E000642000F0C1FA4FF48041314802F00EF868
:1004F0004FF400412E4802F009F82E48B0F90020D0
:100500000521002000F0FDFB2A48008800F5FA7064
:1005100000B2284908800846B0F9000040F6B8311A
:10052000884200DD00E0DBE700BF40F6B83021493B
:10053000088020E0642000F097FA4FF480411C48C6
:1005400001F0E2FF4FF40041194801F0DDFF1948C6
:10055000B0F900200521002000F0D3FB15480088E9
:10056000A0F5FA7000B2134908800846B0F90000FF
:10057000002800DA00E0DDE700BF00200D49088018
:1005800027E0642000F070FA4FF40051084801F0B1
:10059000BDFF4FF40041064801F0B8FF0548B0F92F
:1005A00000200621002000F0ACFB0248008803E098
:1005B000001002400000002000F5FA7000B2FE4971
:1005C00008800846B0F9000040F6B831884200DDE6
:1005D00000E0D6E700BF40F6B830F749088020E0D9
:1005E000642000F041FA4FF40051F44801F08CFF10
:1005F0004FF40041F14801F087FFEF48B0F90020C7
:100600000621002000F07DFBEB480088A0F5FA7081
:1006100000B2E94908800846B0F90000002800DA75
:1006200000E0DDE700BF0020E34908800846B0F99C
:1006300000200021084600F064FB04E201F0B6F857
:1006400004460A2000F010FA002401F0AFF8044636
:10065000601F0C2871D2DFE800F0064E97DFFEFD28
:100660007070FCFBFAF90020D34908801DE064207B
:1006700000F0FAF94FF40051D04801F047FFCE489E
:10068000B0F900200121002000F03BFBCA4800889F
:1006900000F5FA7000B2C84908800846B0F90000B9
:1006A00040F6B831884200DD00E0E0E700BF40F6E8
:1006B000B830C14908801BE0642000F0D5F94FF440
:1006C0000051BE4801F020FFBB48B0F900200121D5
:1006D000002000F016FBB8480088A0F5FA7000B2C0
:1006E000B54908800846B0F90000002800DA00E0AB
:1006F000E2E700BFA6E10020AF4908801EE06420C9
:1007000000F0B2F94FF48041AC4801F0FFFEAA4876
:10071000B0F900200221002000F0F3FAA64800887A
:1007200000F5FA7000B2A44908800846B0F900004C
:1007300040F6B831884201DD01E082E1DFE700BF29
:1007400040F6B8309C4908801BE0642000F08CF92A
:100750004FF48041994801F0D7FE9748B0F9002046
:100760000221002000F0CDFA93480088A0F5FA702D
:1007700000B2914908800846B0F90000002800DA6C
:1007800000E0E2E700BF5DE100208B4908801DE04A
:10079000642000F069F94FF40041884801F0B6FE8A
:1007A0008548B0F900200321002000F0AAFA824811
:1007B000008800F5FA7000B27F4908800846B0F959
:1007C000000040F6B831884200DD00E0E0E700BFFD
:1007D00040F6B830784908801BE0642000F044F906
:1007E0004FF40041754801F08FFE7348B0F90020C6
:1007F0000321002000F085FA6F480088A0F5FA7008
:1008000000B26D4908800846B0F90000002800DAFF
:1008100000E0E2E700BF15E100206749088029E019
:10082000642000F021F94FF40051644801F06EFE9D
:100830004FF48041614801F069FE5F48B0F9002043
:100840000421002000F05DFA5B4805E0F3E0ECE0F5
:100850008DE03AE0E3E0E1E0008800F5FA7000B2F4
:10086000554908800846B0F9000040F6B831884282
:1008700000DD00E0D4E700BF40F6B8304E49088004
:1008800020E0642000F0F0F84FF400514B4801F0F4
:100890003BFE4FF48041494801F036FE4648B0F92E
:1008A00000200421002000F02CFA43480088A0F525
:1008B000FA7000B2404908800846B0F900000028EC
:1008C00000DA00E0DDE700BFBCE000203A49088024
:1008D00022E0642000F0C8F84FF48041374801F06E
:1008E00015FE4FF40041354801F010FE3248B0F9D2
:1008F00000200521002000F004FA2F48008800F5B0
:10090000FA7000B22C4908800846B0F9000040F6A1
:10091000B831884200DD00E0DBE700BF40F6B830C8
:100920002549088020E0642000F09EF84FF48041C3
:10093000224801F0E9FD4FF40041204801F0E4FDB8
:100940001D48B0F900200521002000F0DAF91A480E
:100950000088A0F5FA7000B2174908800846B0F97F
:100960000000002800DA00E0DDE700BF6AE00020B8
:100970001149088027E0642000F076F84FF4005118
:100980000E4801F0C3FD4FF400410C4801F0BEFDDC
:100990000948B0F900200621002000F0B2F906480D
:1009A000008800F5FA7000B2034908800846B0F9E3
:1009B000000040F6B83103E00000002000100240C3
:1009C000884200DD00E0D6E700BF40F6B8301E499F
:1009D000088020E0642000F047F84FF400511B48E5
:1009E00001F092FD4FF40041184801F08DFD1648CA
:1009F000B0F900200621002000F083F91248008899
:100A0000A0F5FA7000B2104908800846B0F900005D
:100A1000002800DA00E0DDE700BF13E012E04FF449
:100A200000410A4801F070FD0CE04FF48041074896
:100A300001F06AFD06E04FF40041044801F066FD54
:100A400000E000BF00BFF9E50000002000100240F8
:100A5000704700BFFEE700BFFEE700BFFEE700BF34
:100A6000FEE770477047704710B5002107E04AF273
:100A7000104200BF1300A2F10102FBD1491C8142C8
:100A8000F5D310BD10B5002106E0282200BF1300E9
:100A9000A2F10102FBD1491C8142F6D310BD000036
:100AA00010B5002106E0282200BF1300A2F10102C8
:100AB000FBD1491C8142F6D310BD00B58BB001219A
:100AC000082001F0F1FF0121480602F020F8092278
:100AD0000021FA4801F027FD09220121F74801F021
:100AE00022FD0320029002208DF80C0002A9F34899
:100AF00001F08EFC14208DF8040002208DF8050012
:100B000001208DF806008DF8070001A800F0AFFE67
:100B100013208DF8040001208DF805008DF80600E3
:100B20008DF8070001A800F0A2FEE54800F00AFFDA
:100B300008A801F02BF800208DF826008DF827007A
:100B40008DF828008DF829008DF82A0001208DF8F5
:100B50002B0000208DF822008DF8230008208DF84E
:100B6000240003208DF82500ADF8200008A9D44802
:100B700000F001FF00208DF81A008DF81B00012005
:100B80008DF81C000020ADF81000ADF81200ADF893
:100B90001400ADF81600ADF8180001208DF81D0006
:100BA00004A800F072FF01220221C54801F06CFA8E
:100BB00001221146C24801F067FA0BB000BD10B522
:100BC0000121BF4801F0C8FA30B10121BC4801F051
:100BD0005EFB0120BB49087010BD70B586B00446AD
:100BE0000D46002600208DF80C008DF80D00082021
:100BF0008DF80E00072C06DC0F2D04DC46EA0426D7
:100C000046EA051601E006B070BD019655208DF844
:100C10000F0055218DF810108DF811108DF812105D
:100C20008DF813108DF814108DF815108DF816101E
:100C30000020A449087001A9A14801F015F800207E
:100C4000A14908600CE00120FFF72AFF9E480068D8
:100C5000401C9D49086008460068642800D903E0EC
:100C6000984800780028EED000BF00BFCBE7F0B571
:100C700085B004460D461746012600208DF8080071
:100C80008DF8090008208DF80A00072C06DC0F2DCE
:100C900004DC46EA042646EA051601E005B0F0BD8C
:100CA00000968DF80B7055218DF80C108DF80D10F5
:100CB0008DF80E108DF80F108DF810108DF81110A2
:100CC0008DF8121000207F49087069467C4800F0BA
:100CD000CBFF00207C4908600CE00120FFF7E0FE1C
:100CE00079480068401C7849086008460068642814
:100CF00000D903E0734800780028EED000BF00BFA1
:100D0000CCE7F0B585B005460E4614460227002014
:100D10008DF808008DF8090008208DF80A00072DCD
:100D200006DC0F2E04DC47EA052747EA061701E038
:100D300005B0F0BD009741F28830844201DD0446E1
:100D400003E06248844200DA0446200A8DF80B0072
:100D5000E1B28DF80C1055218DF80D108DF80E10A4
:100D60008DF80F108DF810108DF811108DF81210ED
:100D70000020544908706946514800F075FF002072
:100D8000514908600CE00120FFF78AFE4E480068D8
:100D9000401C4D49086008460068642800D903E0FB
:100DA000484800780028EED000BF00BFC0E72DE91A
:100DB000F04186B005460E4614461F464FF0030824
:100DC00000208DF80C008DF80D0008208DF80E0025
:100DD000072D06DC0F2E04DC48EA052848EA061831
:100DE00002E006B0BDE8F081CDF8048041F2883021
:100DF000844201DD044603E03448844200DA0446BC
:100E0000002C04DA01DD204600E0604204B2200A32
:100E10008DF80F008DF81040390A8DF811108DF8FB
:100E2000127055218DF813108DF814108DF81510CF
:100E30008DF8161000202349087001A9204800F001
:100E400013FF0020204908600CE00120FFF728FE76
:100E50001D480068401C1C4908600846006864285A
:100E600000D903E0174800780028EED000BF00BF8B
:100E7000B7E72DE9F04186B005460E4614461F46F9
:100E80004FF0040800208DF80C008DF80D000820AC
:100E90008DF80E00072D06DC0F2E04DC48EA05282D
:100EA00048EA061802E006B0BDE8F081CDF80480FB
:100EB00041F2883084420BDD04460DE0000C024014
:100EC00000640040080000200400002078ECFFFFD0
:100ED000F748844200DA0446002C04DA01DD20469B
:100EE00000E0604204B2200A8DF80F008DF8104037
:100EF000390A8DF811108DF8127055218DF81310E4
:100F00008DF814108DF815108DF816100020E94991
:100F1000087001A9E84800F0A7FE0020E749086032
:100F20000CE00120FFF7BCFDE4480068401CE349E9
:100F3000086008460068642800D903E0DD480078AE
:100F40000028EED000BF00BFADE72DE9F04186B02C
:100F500006460F4614461D464FF0050800208DF842
:100F60000C008DF80D0008208DF80E00072E06DC11
:100F70000F2F04DC48EA062848EA071802E006B00A
:100F8000BDE8F081CDF8048041F28830844201DD73
:100F9000044603E0C648844200DA0446002C04DA22
:100FA00001DD204600E0604204B2200A8DF80F0007
:100FB0008DF8104055218DF811108DF81210290E62
:100FC0008DF81310290C8DF81410290A8DF81510BE
:100FD0008DF816500020B749087001A9B64800F0F6
:100FE00043FE0020B54908600CE00120FFF758FDE2
:100FF000B2480068401CB14908600846006864288F
:1010000000D903E0AB4800780028EED000BF00BF55
:10101000B5E72DE9F04385B080460F4614461D46DE
:101020000C9E4FF0060900208DF808008DF809008D
:1010300008208DF80A00B8F1070F06DC0F2F04DC3A
:1010400049EA082949EA071902E005B0BDE8F0833A
:10105000CDF8009041F28830844201DD044603E07F
:101060009348844200DA0446002C04DA01DD20466D
:1010700000E0604204B2002D04DA01DD284600E001
:10108000684205B2200A8DF80B00E1B28DF80C1011
:10109000290A8DF80D10E9B28DF80E10310E8DF879
:1010A0000F10310C8DF81010310A8DF81110F1B2BB
:1010B0008DF8121000207F49087069467E4800F0C4
:1010C000D3FD00207D4908600CE00120FFF7E8FC1B
:1010D0007A480068401C794908600846006864281E
:1010E00000D903E0734800780028EED000BF00BFAD
:1010F000ABE72DE9F04186B005460E4614461F4683
:101100004FF0070800208DF80C008DF80D00082026
:101110008DF80E00072D06DC0F2E04DC48EA0528AA
:1011200048EA061802E006B0BDE8F081CDF8048078
:10113000002C04DA01DD204600E0604204B2200AFF
:101140008DF80F008DF81040390A8DF811108DF8C8
:10115000127055218DF813108DF814108DF815109C
:101160008DF8161000205349087001A9524800F06C
:101170007BFD0020514908600CE00120FFF790FC46
:101180004E480068401C4D490860084600686428C5
:1011900000D903E0474800780028EED000BF00BF28
:1011A000C1E72DE9F04186B006460F4614461D46BC
:1011B0004FF0080800208DF80C008DF80D00082075
:1011C0008DF80E00072E06DC0F2F04DC48EA0628F7
:1011D00048EA071802E006B0BDE8F081CDF80480C7
:1011E000002C04DA01DD204600E0604204B2200A4F
:1011F0008DF80F008DF8104055218DF811108DF8E5
:101200001210290E8DF81310290C8DF81410290ACC
:101210008DF815108DF8165000202649087001A988
:10122000254800F021FD0020244908600CE0012041
:10123000FFF736FC21480068401C2049086008463A
:101240000068642800D903E01A4800780028EED02E
:1012500000BF00BFBFE72DE9F04385B007468846D1
:1012600014461D460C9E4FF0090900208DF8080019
:101270008DF8090008208DF80A00072F07DCB8F167
:101280000F0F04DC49EA072949EA081902E005B012
:10129000BDE8F083CDF80090002C04DA01DD204693
:1012A00000E0604204B2002D0CDA09DD284608E0B7
:1012B00078ECFFFF080000200064004004000020DC
:1012C000684205B2200A8DF80B00E1B28DF80C10CF
:1012D000290A8DF80D10E9B28DF80E10310E8DF837
:1012E0000F10310C8DF81010310A8DF81110F1B279
:1012F0008DF812100020DB4908706946DA4800F0CA
:10130000B3FC0020D94908600CE00120FFF7C8FBBE
:10131000D6480068401CD549086008460068642823
:1013200000D903E0CF4800780028EED000BF00BF0E
:10133000ADE72DE9F04186B004460D4617469846C4
:101340000A2600208DF80C008DF80D0008208DF87D
:101350000E00072C06DC0F2D04DC46EA042646EAC4
:10136000051602E006B0BDE8F08101968DF80F7019
:101370008DF8108055218DF811108DF812108DF810
:1013800013108DF814108DF815108DF8161000201C
:10139000B449087001A9B44800F066FC0020B349C4
:1013A00008600CE00120FFF77BFBB0480068401CA0
:1013B000AE49086008460068642800D903E0A948DF
:1013C00000780028EED000BF00BFCBE770B586B034
:1013D00004460D460F2600208DF80C008DF80D00F8
:1013E00008208DF80E00072C06DC0F2D04DC46EAE1
:1013F000042646EA051601E006B070BD01965520A8
:101400008DF80F0055218DF810108DF811108DF802
:1014100012108DF813108DF814108DF815108DF82A
:10142000161000208F49087001A98F4800F01CFC9D
:1014300000208E4908600CE00120FFF731FB8B484B
:101440000068401C8949086008460068642800D983
:1014500003E0844800780028EED000BF00BFCBE74F
:1014600000B585B00221804800F076FE002839D012
:1014700002217D4800F00BFF6A4600217A4800F007
:10148000E8FC9DF8080000282CD19DF808000028F1
:10149000FAD19DF80A000828F6D100981B2822D11D
:1014A0009DF80C009DF80B1040EA012000B2704935
:1014B00008809DF80E109DF80D0041EA002000B252
:1014C0006C4908809DF80F0001069DF8100041EA64
:1014D00000419DF8110041EA00209DF812100843D8
:1014E00065490860BCE000982B2822D19DF80C00CB
:1014F0009DF80B1040EA012000B25D4948809DF83C
:101500000E109DF80D0041EA002000B259494880B4
:101510009DF80F0001069DF8100041EA00419DF87A
:10152000110041EA00209DF812100843524948601A
:1015300096E000983B2822D19DF80C009DF80B10F6
:1015400040EA012000B24A4988809DF80E109DF8BB
:101550000D0041EA002000B2464988809DF80F0046
:1015600001069DF8100041EA00419DF8110041EA92
:1015700000209DF8121008433F49886070E00098F1
:101580004B2822D19DF80C009DF80B1040EA012059
:1015900000B23749C8809DF80E109DF80D0041EA51
:1015A000002000B23349C8809DF80F0001069DF865
:1015B000100041EA00419DF8110041EA00209DF829
:1015C000121008432C49C8604AE000981F2803D134
:1015D00001202A49087043E000982F2803D10120F8
:1015E000264948703CE000983F2803D10120234958
:1015F000887035E000984F2803D101201F49C8703A
:101600002EE000981C2808D19DF80B001C4908709A
:101610009DF80C001B49087022E000982C2808D186
:101620009DF80B00164948709DF80C00154948704C
:1016300016E000983C2808D19DF80B0010498870EE
:101640009DF80C000F4988700AE000984C2807D1DB
:101650009DF80B000A49C8709DF80C000949C87034
:1016600005B000BD08000020006400400400002018
:101670000A00002012000020780000201A0000203C
:101680001E000020220000201CB50121102001F0C6
:101690000BFA4FF46040009001208DF80400032005
:1016A0008DF805006946094800F0B2FE4FF400517C
:1016B000064800F029FF4FF48041044800F024FF61
:1016C0004FF40041014800F01FFF1CBD0010024014
:1016D0001CB50121082001F0E7F94FF4E04000902B
:1016E00001208DF8040002208DF8050000208DF8FF
:1016F000060069464B4800F08BFE4FF40040009016
:1017000000208DF8040002208DF805006946454848
:1017100000F07EFE0120444908604449C1F8B0024F
:101720004149091D08601CBD2DE9F0410446012511
:101730000026002725E004F0010018B101203A49F5
:10174000086002E000203849086064100A20FFF7B2
:1017500099F900203449091F08600A20FFF792F91F
:101760003248D0F83C0208B17019C6B26806050EBE
:1017700001202D49091F08600A20FFF783F9781C12
:10178000C7B2072FD7DD0120274908603220FFF7B5
:1017900079F93046BDE8F081002004E00021244AB8
:1017A0001154411CC8B20928F8DB704770B50024F9
:1017B0000025FFF7F1FF00201B49091D086000BF4D
:1017C00007E01C49485DFFF7AFFF19494855681C01
:1017D000C5B2092DF5DB01201349091D0860144825
:1017E000C0781349097940EA012013490880002490
:1017F0000FE0124810F81400401E012101FA00F019
:101800000D490988084010B9601CC0B270BD601C49
:10181000C4B2102CEDDB0020F8E701460448405C20
:1018200070470000000C0240B482414200804142F7
:10183000880000202A00002026000020340000201C
:101840000648804706480047FEE7FEE7FEE7FEE75A
:10185000FEE7FEE7FEE7FEE7FEE7FEE76D2600088F
:101860008901000832490143324A1160704770B55E
:10187000002100230F22C4781CB32E4C246804F4EA
:10188000E064C4F5E064C4F30721C1F10404E3B2E9
:101890000A4144789C40E1B28478144021430C070B
:1018A000210E254C05786155047804F01F050124AC
:1018B000AC4005786D11AD0005F1E025C5F800419B
:1018C00009E0047804F01F050124AC401B4D0678A4
:1018D000761145F8264070BD194A0A400243154B5F
:1018E0001B1F1A60704739B1124A121D1268024359
:1018F000104B1B1D1A6006E00E4A121D126882432F
:101900000C4B1B1D1A607047042808D14FF0E021D2
:10191000096941F004014FF0E022116107E04FF046
:10192000E021096921F004014FF0E02211617047C4
:101930000000FA050CED00E000E400E080E100E0CA
:1019400080FFFF1F10B50446FE48844209D10121E3
:10195000480601F042F900214FF0007001F03DF916
:1019600008E00121880601F038F900214FF080607D
:1019700001F033F910BD30B5024600200023146891
:1019800024F002041460146844F00104146000E0C0
:101990005B1C546804F001041CB94FF6FF74A342A9
:1019A000F6D1546804F001040CB900206CE08C7985
:1019B000012C04D1146844F08004146003E014681E
:1019C00024F080041460CC79012C04D1146844F014
:1019D0004004146003E0146824F0400414600C7A9E
:1019E000012C04D1146844F02004146003E014684E
:1019F00024F0200414604C7A012C04D1146844F0C3
:101A00001004146003E0146824F0100414608C7A4D
:101A1000012C04D1146844F00804146003E0146835
:101A200024F008041460CC7A012C04D1146844F02A
:101A30000404146003E0146824F0040414608C7837
:101A4000A407CD7844EA05640D7944EA05444D794C
:101A500044EA05540D886D1E2C43D461146824F0AB
:101A600001041460002300E05B1C546804F00104CE
:101A70001CB14FF6FF74A342F6D1546804F0010480
:101A80000CB1002000E0012030BD10B50021837AA8
:101A9000012202FA03F1AC4A126842F00102AA4B99
:101AA0001A60A94A1C3212688A43A74B1C331A6079
:101AB000027BCAB9A44A0C3212688A43A24B0C3387
:101AC0001A604288C38842EA03439F4A4032847ABC
:101AD00042F834300288838842EA03439A4A40320B
:101AE000847A02EBC4025360027B012A19D1964A20
:101AF0000C3212680A43944B0C331A6042880388F4
:101B000042EA0343904A4032847A42F83430C28831
:101B1000838842EA03438C4A4032847A02EBC4024F
:101B20005360C27A3AB9884A121D12688A43864BBA
:101B30001B1D1A6006E0844A121D12680A43824B7C
:101B40001B1D1A60028932B97F4A143212688A4317
:101B50007D4B14331A600289012A06D17A4A143265
:101B600012680A43784B14331A60427B012A06D16B
:101B7000754A1C3212680A43734B1C331A60724A4E
:101B8000126822F00102704B1A6010BD00218171B1
:101B9000C171017241728172C1728170C170032181
:101BA0000171022141710121018070476649096874
:101BB00041F00101644A11601146096843F60E7252
:101BC0009143614A11601146096841EA00211160A0
:101BD0001146096821F001011160704721B10268C6
:101BE00042F48032026003E0026822F48032026034
:101BF0007047E1B1026842F0800202604FF4C272A5
:101C0000125842F480734FF4C27213504FF4CA72E8
:101C1000125842F480734FF4CA7213504FF4D272C8
:101C2000125842F480734FF4D27213501BE00268D2
:101C300022F0800202604FF4C272125822F48073C4
:101C40004FF4C27213504FF4CA72125822F48073C8
:101C50004FF4CA7213504FF4D272125822F48073A8
:101C60004FF4D2721350704710B5024600209368AB
:101C700003F08063B3F1806F00D110E0936803F04C
:101C80000063B3F1006F01D1012008E0936803F015
:101C90008053B3F1805F01D1022000E004200428CA
:101CA00079D002F5C07303EB00131B6803F0010445
:101CB00002F5C07303EB00131C600B7A7BB94B7AFF
:101CC0000C8843EA445302F5C07404EB0014246802
:101CD000234302F5C07404EB0014236010E00B7A78
:101CE0004C6843EAC4034C7A234302F5C07404EB06
:101CF00000142468234302F5C07404EB001423602D
:101D00008B7A03F00F038B7202F5C07303EB0013A1
:101D10005B6823F00F0402F5C07303EB00135C60F3
:101D200002F5C07303EB00135B688C7A234302F562
:101D3000C07404EB001463608B7B1C064B7B44EA8D
:101D4000034403E000640040006600400B7B44EA6B
:101D50000323CC7A234302F5C07404EB0014A36080
:101D60008B7C1C064B7C44EA03440B7C44EA032333
:101D7000CC7B234302F5C07404EB0014E36002F54E
:101D8000C07303EB00131B6843F0010402F5C0733A
:101D900003EB00131C6010BD10B50246002321B1F7
:101DA000012907D002290FD109E09068F94C00EA17
:101DB00004030BE09068F84C00EA040306E0906826
:101DC000F64C00EA040301E0002300BF00BFF44C1E
:101DD000181BA34216D007DC83B16FF08060184453
:101DE00070B1022818D111E0B0F5007F10D0ED4C91
:101DF000204448B1B0F5003F0ED10BE002230DE0C6
:101E000000230BE0002309E0002307E0012305E0A5
:101E1000012303E0012301E0002300BF00BFD8B28B
:101E200010BD21B1012907D002290FD109E0826834
:101E300042F0800282600AE0826842F400428260DE
:101E400005E0826842F40002826000E000BF00BF4B
:101E5000704710B500F5D87303EB01131B6803F04E
:101E600004031372137A53B900F5D87303EB01130B
:101E70001B6840F2FF7404EA5353136009E000F555
:101E8000D87303EB01131B686FF0604404EAD303BB
:101E9000536000F5D87303EB01131B6803F00203D2
:101EA000537200F5D87303EB01135B6803F00F0363
:101EB000937200F5D87303EB01135B681B0AD374AC
:101EC00000F5D87303EB01139B68D37200F5D87348
:101ED00003EB01139B681C0A147300F5D87303EB22
:101EE00001139B681C0C547300F5D87303EB0113AA
:101EF0009B681B0E937300F5D87303EB0113DB682B
:101F0000D37300F5D87303EB0113DB681C0A147458
:101F100000F5D87303EB0113DB681C0C547400F557
:101F2000D87303EB0113DB681B0E937421B9C368EC
:101F300043F02003C36003E0036943F0200303611F
:101F400010BD21B9C26842F02002C26003E00269FC
:101F500042F02002026170470246002019B9D3689E
:101F600003F0030006E0012903D1136903F0030025
:101F700000E00020704710B502460B4600204FF6E7
:101F8000FF71BBB9146824F0020444F0010414602A
:101F900000E0491E546804F00304012C01D000291C
:101FA000F7D1546804F00304012C01D0002032E082
:101FB000012030E0012B13D1146824F003041460D5
:101FC00000E0491E546804F003040CB10029F8D164
:101FD000546804F003040CB100201CE001201AE056
:101FE000022B17D1146824F0010444F00204146099
:101FF00000E0491E546804F00304022C01D00029BB
:10200000F7D1546804F00304022C01D0002002E050
:10201000012000E0002010BD014600200A6822F0E7
:10202000010242F002020A604A6802F00302022A38
:1020300000D10120704701464FF6FF7200200B6867
:1020400023F002030B6000E0521E4B6803F0020312
:10205000022B01D1002AF7D14B6803F00203022BB7
:1020600000D001207047014600208A6902F070000C
:102070007047014600208A69100E70470146002013
:102080008A69C2F3074070471AB143690B43436141
:1020900002E043698B434361704710B5024600205C
:1020A00001F4700343B19369C1F3130423400BB1EE
:1020B00001202DE000202BE001F0807343B1536834
:1020C000C1F3130423400BB1012021E000201FE0E5
:1020D00001F0006343B19368C1F3130423400BB1D3
:1020E000012015E0002013E001F0007343B1D36834
:1020F000C1F3130423400BB1012009E0002007E0E5
:102100001369C1F3130423400BB1012000E0002048
:1021100010BD0022244B994202D10023836111E0BB
:10212000C1F3130201F000730BB1C2600AE001F0C9
:1021300080630BB1026105E001F000630BB18260C6
:1021400000E0426070470246002002EA01030BB142
:10215000012000E00020704770B504460D460026BF
:1021600060692840002872D0B5F5807F69D01DDCF9
:10217000082D42D006DC012D2DD0022D31D0042DAA
:102180007FD134E0102D3ED0202D42D0402D78D18B
:1021900045E00000030000040003000800000310F5
:1021A000000100080001FFF77000F030B5F5004FA6
:1021B00061D009DCB5F5007F4AD0B5F5806F4DD010
:1021C000B5F5006F5DD150E0B5F5803F2DD0B5F588
:1021D000003F56D12FE0A0685549FFF7B4FF0646EF
:1021E00051E0E0680321FFF7AEFF06464BE0E068F0
:1021F0000821FFF7A8FF064645E0E0681021FFF739
:10220000A2FF06463FE020690321FFF79CFF064638
:1022100039E020690821FFF796FF064633E0206980
:102220001021FFF790FF06462DE060680821FFF7B8
:102230008AFF064627E060681021FFF784FF064604
:1022400021E0A0690121FFF77EFF06461BE01BE0AD
:10225000A0690221FFF777FF064614E0A069042178
:10226000FFF771FF06460EE00BE0A0697021FFF753
:102270006AFF064607E060680421FFF764FF064630
:1022800001E0002600BF00E00026304670BDB1F539
:10229000007F3AD00FDC202928D006DC01291CD091
:1022A00004291DD0082940D11DE0402921D0B1F5D5
:1022B000807F3AD126E0B1F5004F31D006DCB1F590
:1022C000806F25D0B1F5006F2FD124E0B1F5803FAC
:1022D00012D0B1F5003F28D111E0154A826025E007
:1022E0000822C26022E01022C2601FE008220261C0
:1022F0001CE01022026119E00822426016E0102260
:10230000426013E00422426010E0042242600DE0CB
:10231000042242600AE0002282610422426005E059
:10232000002282610422426000E000BF00BF7047CB
:102330000101010010B504468C48844208D10121F6
:10234000084600F006FC0021012000F002FC5EE0DF
:102350008748844208D10121022000F0FAFB0021C5
:10236000022000F0F6FB52E08248844208D10121AD
:10237000042000F0EEFB0021042000F0EAFB46E020
:102380007D48844208D10121082000F0E2FB0021B1
:10239000082000F0DEFB3AE07848844208D10121B1
:1023A000102000F0D6FB0021102000F0D2FB2EE020
:1023B0007348844208D10121202000F0CAFB00218B
:1023C000202000F0C6FB22E06E48844208D10121A3
:1023D000402000F0BEFB0021402000F0BAFB16E0D8
:1023E0006948844208D10121802000F0B2FB00211D
:1023F000802000F0AEFB0AE06448844207D101214E
:10240000801500F0A6FB0021A01500F0A2FB10BD76
:10241000F0B50A4600210023002400BF3DE001255D
:1024200005FA01F3156805EA03049C4234D10568F6
:102430004F000326BE40B543056015794E00B540F8
:102440000668354305601579012D02D01579022DF6
:1024500016D185684F000326BE40B5438560557987
:102460004E00B540866835438560456801268E403C
:10247000B5434560456896798E40B6B235434560B0
:10248000C5684F000326BE40B543C560D5794E00F0
:10249000B540C6683543C560491C1029BFD3F0BD9F
:1024A0004FF6FF7101600021017141718171C171AD
:1024B000704708B54FF480320092009A0A430092A8
:1024C000009AC261C161009AC261C2690092C26988
:1024D000009208BD0246002013690B400BB1012099
:1024E00000E0002070470146086980B2704702464C
:1024F000002053690B400BB1012000E00020704721
:102500000146486980B27047018370474183704734
:102510000AB1018300E0418370474161704742691D
:102520004A4042617047F0B5002300244D07ED0E8C
:1025300002FA05F3CE1000F1200555F826504E079B
:10254000F70E0F26BE40B543CF1000F1200646F827
:102550002750CE1000F1200555F8265045EA030417
:10256000CE1000F1200545F82640F0BD00000240E5
:102570000004024000080240000C0240001002402B
:102580000014024000180240001C024000200240DB
:102590000CB50020019000907648006840F480302F
:1025A0007449086000BF7348006800F40030009070
:1025B0000198401C0190009818B90198B0F5A06FDF
:1025C000F1D16C48006800F4003010B10120009097
:1025D00001E0002000900098012846D16548403075
:1025E000006840F0805063494031086062480068EC
:1025F00040F48040604908605E48083000685D49EA
:10260000083108600846006840F400400860084649
:10261000006840F4A05008605848091F0860081F6F
:10262000006840F08070091F086000BF51480068D2
:1026300000F000700028F9D040F2056050490860B1
:102640004C480830006820F003004A49083108600F
:102650000846006840F00200086000BF45480830A6
:10266000006800F00C000828F8D10CBD10B54548F2
:10267000006840F47000434908603E48006840F03C
:1026800001003C49086000203A4908310860394897
:1026900000683D490840374908603C48091D08600A
:1026A000081F006820F48020091F086000203149BD
:1026B0000C310860FFF76CFF4FF000603149803942
:1026C000086010BD70B50020002202230024022102
:1026D000284D08352D6805F00C0020B1042806D0DF
:1026E000082834D107E02A4D2A4E356033E0284DC2
:1026F000284E35602FE01F4D2D1D2D68C5F38054E9
:102700001C4D2D1D2D6805F03F0154B1204DB5FB2A
:10271000F1F5184E361D3668C6F3881605FB06F22D
:1027200009E01B4DB5FBF1F5124E361D3668C6F3B8
:10273000881605FB06F20F4D2D1D2D68C5F30145CA
:102740006D1C6B00B2FBF3F5124E356003E0104DCB
:10275000104E356000BF00BF064D08352D68C5F32B
:1027600003150D4E705D0B4D2D68C540094E35604B
:1027700070BD000000380240007000401054400757
:10278000003C024088ED00E0FFFFF6FE1030002420
:102790000024F4005400002058000020FA4800688B
:1027A00040F00100F84908600020F749083108604E
:1027B000F5480068F5490840F3490860F448091DE8
:1027C0000860081F006820F48020091F08600020AE
:1027D000ED490C31086070470021EB4A921C1170E2
:1027E00011460870704710B50146002200230020F2
:1027F0004A11012A02D1E44C236808E0022A03D1DD
:10280000E14C7034236802E0DF4C7434236801F03B
:102810001F02012494401C400CB1012000E0002064
:1028200010BD38B5002000900024002500BF3120E5
:10283000FFF7D9FF05460098401C00900098B0F5BE
:10284000A06F01D0002DF2D03120FFF7CCFF08B1EE
:10285000012400E00024204638BD01460020CA4A79
:10286000106820F0F80040EAC10010607047C949C4
:10287000086070470021C44A70321170117001283D
:1028800002D004280AD104E00121BF4A703211703D
:1028900005E00521BC4A7032117000E000BF00BFA6
:1028A0007047BD490860704770B5049C41EA8215C5
:1028B0000126C6EB530645EA0645054345EA04658D
:1028C000B14E361D356070BDB24908667047820151
:1028D00042EA0172AC4B84331A607047AD49886696
:1028E0007047AC49C864704702460020A64B0833C5
:1028F000186820F0EC6042EA01031843A24B083349
:1029000018607047024600209F4B0833186820F07B
:10291000784042EA010318439B4B08331860704724
:1029200001460020984A0832106820F0030008434E
:102930001060704794480830006800F00C00704741
:1029400001460020904A0832106820F0F000084349
:1029500010607047014600208B4A0832106820F44E
:10296000E05008431060704701460020864A083254
:10297000106820F4604040EAC10010607047F0B574
:102980000021002200240225002602237E4F083762
:102990003F6807F00C0121B1042905D0082937D17F
:1029A00005E07E4F076036E07C4F076033E0764FEE
:1029B0003F1D3F68C7F38056734F3F1D3F6807F0C8
:1029C0003F036EB1754FB7FBF3F7DFF8BCC10CF1F5
:1029D000040CDCF800C0CCF3881C07FB0CF40CE002
:1029E0006E4FB7FBF3F7DFF8A0C10CF1040CDCF875
:1029F00000C0CCF3881C07FB0CF4634F3F1D3F68FD
:102A0000C7F301477F1C7D00B4FBF5F7076002E0C8
:102A1000624F076000BF00BF5B4F08373F6807F099
:102A2000F00109095E4F7A5C0768D7404760564F4E
:102A300008373F6807F4E051890A594F7A5C4768C4
:102A4000D7408760504F08373F6807F46041490B13
:102A5000534F7A5C4768D740C760F0BD002100F44F
:102A60004072B2F5407F0AD1474A0832116821F41A
:102A7000F8114C4A02401143434A08321160424A5D
:102A800070321268C0F30B031A433F4B70331A6065
:102A9000704741494439086070473F4940390860F0
:102AA000704741490860704739B1374A303212687F
:102AB0000243354B30331A6006E0334A3032126835
:102AC0008243314B30331A60704739B12E4A343269
:102AD000126802432C4B34331A6006E02A4A34321F
:102AE00012688243284B34331A60704739B1264A42
:102AF000383212680243244B38331A6006E0224A07
:102B0000383212688243204B38331A60704739B12B
:102B10001D4A4032126802431B4B40331A6006E0E4
:102B2000194A403212688243174B40331A6070478B
:102B300039B1154A443212680243134B44331A60C8
:102B400006E0114A4432126882430F4B44331A6044
:102B5000704739B10C4A1032126802430A4B1033E5
:102B60001A6006E0084A103212688243064B10339E
:102B70001A607047D1B1044A143212680243024B02
:102B800014331A6017E0000000380240FFFFF6FE21
:102B90001030002400004742800E47420024F40019
:102BA00068000020FFFCFF0F5C0147425B4A12688F
:102BB00082435A4B1A60704739B1584A121D126845
:102BC0000243564B1B1D1A6006E0544A121D126840
:102BD0008243524B1B1D1A60704739B14F4A0C3269
:102BE000126802434D4B0C331A6006E04B4A0C321C
:102BF00012688243494B0C331A60704739B1474A17
:102C0000103212680243454B10331A6006E0434A03
:102C1000103212688243414B10331A60704739B149
:102C20003E4A3C32126802433C4B3C331A6006E099
:102C30003A4A3C3212688243384B3C331A60704740
:102C400039B1364A403212680243344B40331A607D
:102C500006E0324A403212688243304B40331A60F9
:102C6000704739B12D4A4432126802432B4B44332A
:102C70001A6006E0294A443212688243274B4433E3
:102C80001A60704739B1254A4C3212680243234B0F
:102C90004C331A6006E0214A4C32126882431F4BC3
:102CA0004C331A60704739B11C4A503212680243E3
:102CB0001A4B50331A6006E0184A503212688243A9
:102CC000164B50331A60704739B1144AD21F12782C
:102CD0000243124BDB1F1A7006E0104AD21F127813
:102CE00082430E4BDB1F1A7070470C48603000683F
:102CF00040F080700949603108607047014600204B
:102D0000064A083A12680A400AB1012000E0002091
:102D100070470249891F087070470000143802404C
:102D2000064C074D06E0E06840F0010394E8070018
:102D300098471034AC42F6D3FDF72AFA642D000808
:102D4000842D000802E008C8121F08C1002AFAD129
:102D500070477047002001E001C1121F002AFBD11B
:102D600070470000842D000800000020780000005B
:102D7000442D0008FC2D00087800002020040000ED
:102D8000542D0008000000000000000000000000BA
:102D90000000000000000000000000000000000033
:102DA000000000000000000000000000014201429D
:102DB0000000000000000000010002000300040009
:102DC000050006000700080009000A000B000C00BF
:102DD0000D000E000F001000007A030A0000000032
:102DE00000000000010203040607080900000000BB
:0C2DF000010203040102030406070809A5
:040000050800018965
:00000001FF
