:020000040800F2
:10000000080700209D0100087712000889110008E8
:100010007512000889050008171D0008000000007F
:10002000000000000000000000000000DD150008D6
:10003000A70F00080000000089140008B50100089F
:10004000B7010008B7010008B7010008B7010008B0
:10005000B7010008B7010008B7010008B7010008A0
:10006000B7010008B7010008B7010008B701000890
:10007000B7010008B7010008B7010008B701000880
:10008000B7010008B7010008B701000879080008A7
:100090008D060008B7010008B7010008B701000885
:1000A000B7010008B7010008B7010008B701000850
:1000B000C9170008E1170008B7010008B7010008D8
:1000C000B7010008B7010008B7010008B701000830
:1000D000B7010008B7010008B70100083D19000882
:1000E000B7010008B7010008B7010008B701000810
:1000F000B7010008B7010008B7010008B701000800
:10010000B7010008B7010008B7010008B7010008EF
:10011000B7010008B7010008B7010008B7010008DF
:10012000B7010008B7010008B7010008B7010008CF
:10013000B7010008B7010008B7010008B7010008BF
:10014000B7010008B7010008B7010008B7010008AF
:10015000B7010008B7010008B7010008B70100089F
:10016000B7010008B7010008B7010008B70100088F
:10017000B7010008B7010008B7010008B70100087F
:10018000B7010008B7010008DFF80CD000F0EAF969
:1001900000480047211E0008080700200648804745
:1001A00006480047FEE7FEE7FEE7FEE7FEE7FEE75C
:1001B000FEE7FEE7FEE7FEE76D170008890100088D
:1001C0002DE9FE4F804681EA0300C00F0C460090E7
:1001D00021F0004123F00045B8EB0200A94105D20F
:1001E0004046214690461C460B46024623F00040FE
:1001F000104347D0270DC7F30A00C3F30A510290FA
:10020000401A019040286BDAC3F3130040F4801BBE
:100210000098924620B10023D2EB030A63EB0B0B4C
:1002200001985946C0F14002504600F00FF90646C9
:100230000D4650465946019A00F027F910EB080088
:100240006141002487EA115284EAE7731A4340D0DF
:10025000009A62B3019A012A4FEA075215DC001B8B
:1002600061EB02014FF0004202EA0752CDE9004281
:10027000001C41F5801132462B4600F025F903B0F1
:10028000BDE8F08F40462146F9E7001B61EB020113
:10029000001C41F5801300185B412018A2F50017DF
:1002A00047EB030140EAD570B6196D4111E06D08C6
:1002B0004FEA360645EAC0754FEA0752001B61EB6C
:1002C0000201001C41F5801149084FEA3000001975
:1002D000514132462B4603B0BDE8F04F00F0E7B87D
:1002E0000098012240000023D0EB020263EBE07390
:1002F000009821464FEAE074B8EB000061EB04017E
:10030000E9E783F000435BE781F0004158E72DE91E
:10031000F04D81EA030404F0004B21F0004514463F
:100320004FF0000A23F0004150EA050220D054EAC1
:1003300001021DD0C5F30A570246C5F31303C1F3EA
:100340001300C1F30A5640F4801543F48013A7EB61
:100350000608101BD64608F2FD3873EB050002D3E1
:1003600008F1010801E092185B41B8F1000F03DACF
:1003700000200146BDE8F08D00204FF480110646B4
:1003800084460EE0171B73EB050705D3121B63EBC6
:10039000050306434CEA010C49084FEA3000921865
:1003A0005B4150EA0107EDD152EA030012D082EA24
:1003B000040083EA0501084305D0101BAB4106D2B7
:1003C0000122002306E000224FF0004302E06FF01C
:1003D000010253101AEB06004CEB085110EB0A0017
:1003E00041EB0B01BDE8F04D00F061B80EB5C10F57
:1003F00080EAE0700844CA07002140F233438DE8E8
:100400000E000A460B4600F05FF803B000BD70B561
:10041000C1F30A5201F000450024C1F3130140F278
:10042000FF3341F480119A4201DA002070BD40F29E
:1004300033439A42A2F2334203DC524200F015F8F1
:1004400000E090402C43F1D0404270BD202A04DBF4
:10045000203A00FA02F1002070479140C2F12003D7
:1004600020FA03F3194390407047202A04DB203A16
:1004700021FA02F00021704721FA02F3D040C2F1C4
:1004800020029140084319467047202A06DBCB170B
:10049000203A41FA02F043EAE07306E041FA02F33F
:1004A000D040C2F12002914008431946704710B570
:1004B000002B08DA401C41F1000192185B411A43FD
:1004C00001D120F0010010BD2DE9F04D92469B4670
:1004D00011B1B1FA81F202E0B0FA80F22032904616
:1004E000FFF7B4FF04460F4640EA0A0041EA0B0159
:1004F00053465A46084313D0114653EA010019D017
:10050000C8F140025046FFF7B0FF05460E46504680
:1005100059464246FFF79AFF084305D0012004E000
:1005200020463946BDE8F08D0020054346EAE076D6
:100530002C4337430A986305E40AA0EB0800002225
:10054000FD0A44EA47540A3002D500200146E9E793
:10055000010510196941DDE9084500196941BDE847
:10056000F04DA4E7064C074D06E0E06840F00103BB
:1005700094E8070098471034AC42F6D3FFF708FE22
:100580005823000878230008FEE70000F0B58BB080
:100590000121082000F07AFF0121480600F084FFC5
:1005A000384D09220021284600F03CFD0922012196
:1005B000284600F037FD0326029602248DF80C40F1
:1005C00002A9284600F0F0FC14208DF804008DF8F4
:1005D000054001258DF806508DF8075001A800F060
:1005E00065FE13208DF804008DF805508DF8065037
:1005F0008DF8075001A800F059FE234F384600F04F
:1006000093F908A800F05EFC00248DF826408DF8D0
:1006100027408DF828408DF829408DF82A408DF824
:100620002B508DF822408DF8234008208DF82400AF
:100630008DF82560ADF8206008A9384600F074FAFE
:100640008DF81A408DF81B408DF81C50ADF8104005
:10065000ADF81240ADF81440ADF81640ADF81840B2
:100660008DF81D5004A800F085F9012202213846BA
:1006700000F050FA01221146384600F04BFA0BB058
:10068000F0BD0000000C02400064004070B5774CE3
:100690000221204600F0D8F9002879D00221204616
:1006A00000F0FEF8724A0021204600F0BFFA7049BF
:1006B000087A002829D1887A0828FBD10868A1F196
:1006C0003002A1F12403A1F118041B281ED02B280D
:1006D00032D03B2846D04B285BD05B2875D06B28A6
:1006E0006ED00122634B1F286BD02F286AD03F2881
:1006F00069D04F2868D01B1D1A1D1C287BD02C28C0
:100700007AD03C2879D04C2878D0A9E0087BCD7AE3
:1007100040EA05201080887B4A7B40EA022018804E
:10072000887CCA7B40EA02600A7C497C120442EA67
:1007300001210843206093E0087BCD7A40EA052040
:100740005080887B4A7B40EA02205880887CCA7BA4
:1007500040EA02600A7C497C120442EA0121084313
:1007600060607DE0087BCD7A40EA05209080887B40
:100770004A7B40EA02209880887CCA7B40EA02607B
:100780000A7C497C120442EA01210843A06067E028
:100790006AE0087BCD7A40EA0520D0808A7B487BDE
:1007A00042EA0020D880887CCA7B40EA02600A7C4A
:1007B000497C120442EA01210843E06050E004E071
:1007C0001DE032E033E034E035E0087BCD7A40EAEA
:1007D00005201081887B4A7B40EA02201881887CB2
:1007E000CA7B40EA02600A7C497C120442EA012189
:1007F0000843206134E020E024E028E02CE0087B7E
:10080000CD7A40EA05205081887B4A7B40EA02206D
:100810005881887CCA7B40EA02600A7C497C1204C9
:1008200042EA0121084360611AE01A7018E05A7028
:1008300016E09A7014E0DA7012E0C87A1870087B3B
:1008400010700DE0C87A5870087B507008E0C87AC4
:100850009870087B907003E0C87AD870087BD070DD
:10086000BDE8704001F066BB70BD00000064004050
:10087000DC0000202400002010B5074C0121204698
:1008800000F0E2F8002806D00121204600F008F828
:1008900002490120087010BD006400401C000020C7
:1008A00030B5082310240422B1F5007F33D011DCC9
:1008B00020292AD007DC012922D0042923D00829A5
:1008C00000D1C46030BD402921D0B1F5807FF9D17D
:1008D000426030BD0025B1F5004F20D008DCB1F5F5
:1008E000806F1AD0B1F5006FF3D18561426030BDE1
:1008F000B1F5803F0DD0B1F5003FF8D1446030BD77
:100900000849816030BDC36030BD036130BD046102
:1009100030BD436030BD426030BD426030BD856156
:10092000426030BD0101010010B50C4988420AD176
:1009300001214C06204600F0C5FD2046BDE81040D0
:10094000002100F0BFBD01218C06204600F0BAFD59
:100950002046BDE81040002100F0B4BD0064004016
:10096000002204E02821491E4B1CFCD1521C82426B
:10097000F8D37047F0B5827A01219140304C22685B
:1009800042F0010222602E4D1C352A688A432A60FB
:100990002B4A067B0C322B4B002E14D116688E434B
:1009A00016604688C78846EA0746877A03EBC7077A
:1009B000C7F840660688878846EA0746877A03EBC9
:1009C000C707C7F84466067B012E14D116680E438C
:1009D00016604288068842EA0642867A03EBC6061B
:1009E000C6F84026C288868842EA0642867A03EB29
:1009F000C603C3F84426124AC37A121D3BB11368DA
:100A00000B4313600E4A0389143223B106E01368C6
:100A10008B431360F6E713688B4313600389012B44
:100A200002D113680B431360407B012802D1286870
:100A300008432860206820F001002060F0BD00001D
:100A400000660040006000400246002053690B42EF
:100A50005DD0B1F5807F4AD016DC082937D009DC9B
:100A600001292CD002292ED0042950D1D068082188
:100A700000F093BA10292ED0202930D0402946D139
:100A80001069102100F089BAB1F5004F3BD00CDCA1
:100A9000B1F5007F2FD0B1F5806F30D0B1F5006F88
:100AA00035D19069702100F078BAB1F5803F1AD045
:100AB000B1F5003F2BD15068102100F06EBA90685C
:100AC000134900F06ABAD068032100F066BAD06812
:100AD000102100F062BA1069032100F05EBA1069BB
:100AE000082100F05ABA5068082100F056BA9069FF
:100AF000012100F052BA9069022100F04EBA9069CB
:100B0000042100F04ABA5068042100F046BA704748
:100B100001010100002A03D042690A434261704783
:100B200042698A434261704710B50022036823F08E
:100B300002030360036843F0010303604FF6FF7391
:100B400000E0521C4468E40701D19A42F9D142689E
:100B5000D2073ED08A79012A3DD0026822F0800275
:100B60000260CA79012A3BD0026822F0400202608A
:100B70000A7A012A39D0026822F0200202604A7AF9
:100B8000012A37D0026822F0100202608A7A012A14
:100B900035D0026822F008020260CA7A012A33D0F6
:100BA000026822F0040202608A78CC78920742EA56
:100BB00004620C7942EA04424C79098842EA045200
:100BC000491E0A43C261016821F001010160002150
:100BD00020E0002010BD026842F080020260C0E701
:100BE000026842F040020260C2E7026842F020025E
:100BF0000260C4E7026842F010020260C6E70268C1
:100C000042F008020260C8E7026842F00402026093
:100C1000CAE7491C4268D20701D09942F9D140681D
:100C2000C00701D0002010BD012010BD10B500EBA1
:100C30000113D3F8B04104F004041472002C2CD03A
:100C4000D3F8B041E408546003F5D8731C6804F08D
:100C5000020454725C6804F00F0494725C68240A05
:100C6000D4749C68D4729C68240A14739C68240C05
:100C700054739C68240E9473DC68D473DC68240A73
:100C80001474DC68240C5474DB681B0E937449B133
:100C9000016941F02001016110BDD3F8B041640D3C
:100CA0001460D1E7C16841F02001C16010BD0000AF
:100CB00070B586B00A2400258DF80C508DF80D50C3
:100CC00008268DF80E6007282AD80F2928D844EA6C
:100CD000002040EA011001908DF80F208DF81030AF
:100CE00055208DF811008DF812008DF813008DF845
:100CF00014008DF815008DF816000A4C257001A916
:100D0000094800F0EFF8656007E00120FFF728FED2
:100D10006068401C6060642802D820780028F4D005
:100D200006B070BD1C0000200064004030B585B0E6
:100D3000012300258DF808508DF8095008248DF8FE
:100D40000A4007282AD80F2928D843EA002040EA79
:100D5000011000908DF80B2055208DF80C008DF8B7
:100D60000D008DF80E008DF80F008DF810008DF835
:100D700011008DF812000A4C25706946094800F0F0
:100D8000B1F8656007E00120FFF7EAFD6068401CEC
:100D90006060642802D820780028F4D005B030BD07
:100DA0001C0000200064004030B585B00022002502
:100DB0008DF808508DF8095008238DF80A3007285F
:100DC0002AD80F2928D842EA002040EA01100090D2
:100DD00055208DF80B008DF80C008DF80D008DF866
:100DE0000E008DF80F008DF810008DF811008DF8B1
:100DF00012000A4C25706946094800F073F86560D6
:100E000007E00120FFF7ACFD6068401C60606428CB
:100E100002D820780028F4D005B030BD1C00002096
:100E20000064004070B586B0042400258DF80C5095
:100E30008DF80D5008268DF80E6007283AD80F2936
:100E400038D844EA002040EA0110019041F288308D
:100E5000824201DD024603E01748824200DA024680
:100E6000002A01DA504202B2100A8DF80F008DF804
:100E70001020180A8DF811008DF8123055208DF8C9
:100E800013008DF814008DF815008DF816000B4C2A
:100E9000257001A90A4800F025F8656007E00120E7
:100EA000FFF75EFD6068401C6060642802D820780F
:100EB0000028F4D006B070BD78ECFFFF1C000020C5
:100EC0000064004000218171C17101724172817220
:100ED000C1728170C1700321017102214171012130
:100EE0000180704730B50246002093685B010AD448
:100EF0009068000101D5012005E09068C00001D58F
:100F0000022000E0042004283BD002EB0012D2F8BB
:100F1000803103F00103C2F880310B7A93B3D2F829
:100F200080414D681C434B7A43EAC5031C43C2F819
:100F300080418B7A03F00F038B7202F5C072536805
:100F400023F00F03536053688C7A23435360CB7AAA
:100F50008C7B0D7B43EA04634C7B240444EA052428
:100F600023439360CB7B8C7C43EA04634C7C097CF9
:100F7000240444EA01210B43D360116841F00101CC
:100F8000116030BDFFE7D2F880314C7A23430C88E2
:100F900043EA4453C2F88031CBE7024600200A42BC
:100FA00000D00120704770472DE9F0410022012751
:100FB0004FF0030C07FA02F50B682B40AB422CD123
:100FC000066853000CFA03F4A64306600E79D0F8C5
:100FD00000809E4046EA080606600E79012E01D088
:100FE000022E12D18668A64386604E79D0F808801A
:100FF0009E4046EA080686604668AE4346604568FD
:101000008E799640B6B235434560C568A543C56044
:10101000CC799C40C3681C43C460521C102AC9D3BD
:10102000BDE8F08110B54B07DB0E9A40C90800EB14
:101030008100016A0F249C40A1430162016A1143AF
:10104000016210BD2DE9F041002001214C4B00222E
:101050004C4DDC78002C02D0012C7CD154E0D5F82A
:10106000B8109C682144C5F8B81046495C39096835
:1010700000EE101AB8EEC00A85ED320A2E6F264433
:101080002E6700EE101AB8EEC00A85ED200AD5F8DA
:1010900000612644C5F8006100EE101AB8EEC00ADF
:1010A00085ED440AD5F890715E683744C5F89071B3
:1010B000714391FBF4F100EE101AB8EEC00A85ED11
:1010C000680AD5F848413444C5F8484100EE101A82
:1010D000B8EEC00A85ED560AAC6A3444AC6200EE44
:1010E000101AB8EEC00A85ED0E0A012400EBC0010B
:1010F00005EBC10101F8244F0A760A74401CC0B206
:101100000628F3D3DC7026E041B100EBC00105EB0B
:10111000C10191F8341009B1012100E00021401C07
:10112000C0B20628F0D3B1B1002100EBC00005EB3E
:10113000C00024300274027002762438491CC9B2FF
:101140000629F6D303219970DA7090ED0A0AB8EEF9
:10115000C00A80ED110A002404EBC40005EBC000B6
:10116000621C90ED0E0A806ABDEEC00A10EE101AE5
:1011700000F028FF641CE4B2062CEDD3BDE8F0813A
:101180005C00002058010020FEE700001CB5012192
:10119000084600F07BF96020009001248DF804409F
:1011A00000208DF8060003208DF805008DF807401B
:1011B00069460348FFF7F8FE0248046044601CBD1E
:1011C00000000240940240422DE9F0412849274C9A
:1011D0000125D1E90332244F66784FF0000C102826
:1011E0000BD2DFE800F0080A0A0A0A0C190A1D22CD
:1011F0000A0A0A250A3284F801C0BDE8F0812320DA
:10120000A06040F263106060282048609818086071
:10121000C1F808C03D70F0E70A2088603D70ECE737
:101220006FF0090088603D70E7E787F800C0E4E7E9
:10123000002EE2D10A320A61A02A01DBA020086157
:101240000869184408606570D7E7002ED5D10A3ABE
:101250000A616FF01300824200DC086108691844DB
:1012600008606570C9E70000040000205C000020F1
:10127000FC000020FEE7704708B500214FF0006039
:1012800000F052F84FF4A06000F044F827208DF8E9
:10129000000000208DF801008DF8020001208DF87B
:1012A0000300684600F002F808BD000030B50F23C7
:1012B000C27801250178002A1FD0154A126802F46D
:1012C000E062C2F5E062C2F30722C2F10404D34037
:1012D0004278A24084781C401443220101F1E021AD
:1012E00081F80024007800F01F018D404009800043
:1012F00000F1E020C0F8005130BD01F01F00854032
:101300004809800000F1E020C0F8805130BD0000A5
:101310000CED00E0024908430249086070470000F4
:101320000000FA050CED00E0024A114001430248BA
:101330000160704780FFFF1F08ED00E00020044AB5
:1013400000211154401CC0B20928FAD37047000094
:10135000F00000202DE9F0410024FFF7EFFF164ECA
:101360000020C6F8B802154F154D385D00F056F84C
:101370002855641CE4B2092CF7D30127C6F8B872CB
:10138000E878297940EA01220C48801E028000207A
:101390000A4B0A3313F81040641E07FA04F1114295
:1013A00003D1401CC0B2BDE8F081401CC0B210287F
:1013B000F0D30020F7E70000008041423200002017
:1013C000F00000202DE9FC410121082000F05EF82A
:1013D0004FF4E040009001248DF8044002258DF880
:1013E000055000268DF806600A4F69463846FFF71B
:1013F000DBFDE10300918DF804608DF8055069462E
:101400003846FFF7D1FD0448446004608460BDE8BD
:10141000FC810000000C0240B08241422DE9F047FF
:101420000646012500270024DFF85880A2464FF029
:101430000109F00702D0C8F8B49201E0C8F8B4A2DC
:1014400076080A2000F0A8FCC8F8B0A20A2000F034
:10145000A3FCD8F83C0208B17819C7B26806050E9B
:10146000C8F8B0920A2000F097FC641CE4B2072C84
:10147000DFD9C8F8B492322000F08EFC3846BDE8BF
:10148000F08700000080414270470000054A0029B3
:1014900003D01168014311607047116881431160E6
:1014A0007047000030380240054A002903D0116817
:1014B000014311607047116881431160704700005B
:1014C00040380240054A002903D0116801431160E9
:1014D0007047116881431160704700002038024056
:1014E000054A002903D01168014311607047116853
:1014F00081431160704700002438024070B5244BCE
:10150000196801F00C01234C00291ED0224E042939
:101510001DD008291DD00460196801F0F0010909E7
:101520001E4A545C0168E14041601C6804F4E054C8
:10153000A40A145D21FA04F484601B6803F4604378
:101540005B0BD25CD140C16070BD0460E4E7066013
:10155000E2E70F4A121F1168C1F38055116801F0CC
:101560003F0135B1B6FBF1F11468C4F3881461434F
:1015700005E0B4FBF1F11468C4F388146143126808
:10158000C2F30142521C5200B1FBF2F10160C3E709
:10159000083802400024F40040787D010500002056
:1015A00000B500F0B5FD00210A4B002201EBC1009F
:1015B00003EBC0000261426180F8242080F83420EF
:1015C00080F83C20491C0629F0DB0348012181708A
:1015D000C27000BD580100205C0000207047000070
:1015E0000CB50022019200922749086840F480302F
:1015F00008604FF4A043086800F4003000900198A0
:10160000401C0190009810B901989842F3D10868E5
:10161000800302D50120009000E00092009801288C
:1016200031D119484030026842F0805202601748B8
:10163000026842F4404202601348083002680260C7
:10164000026842F400420260026842F4A052026062
:10165000021F0F4B13600A6842F080720A600A682A
:101660009201FCD50B4A40F205711160016821F02E
:1016700003010160016841F0020101600168C1F3EA
:1016800081010229FAD10CBD0038024000700040EF
:1016900019544007003C024070B50121294C002339
:1016A000294DE078002802D0012837D116E000212A
:1016B0009FED260A012601EBC10005EBC00002697F
:1016C0004E320261826280F8246080F8343080ED0E
:1016D0000E0A491C0629EEDBE6701FE0002041B12E
:1016E00000EBC00105EBC10191F8341009B10121F3
:1016F00000E00021401C0628F1DB79B1002100EB5D
:10170000C00005EBC0002430037403700376243856
:10171000491C0629F7DB0220A070E370002404EBCB
:10172000C40005EBC000621C90ED0E0A806ABDEE9D
:10173000C00A10EE101A00F045FC641C062CEEDB0B
:1017400070BD00005C00002058010020000096439E
:101750004FF0E021042804D0086920F0040008615B
:101760007047086940F004000861704710B51248DE
:10177000016841F4700101601048016841F0010105
:1017800001600E4A00210832116002680C4B1A40B9
:101790000260031D0B4A1A60026822F48022026074
:1017A00006480C300160FFF71BFF03494FF0006053
:1017B0008039086010BD000088ED00E0003802406C
:1017C000FFFFF6FE1030002410B501218C072046E3
:1017D00000F05FF82046BDE81040012100F04AB853
:1017E00010B50B4C0121204600F053F8012809D117
:1017F000084A1168491C1160062903DD00201060A9
:1018000000F0CAFB2046BDE81040012100F032B8CC
:1018100000040040740000207FB504460D460121FD
:101820000220FFF741FE0294ADF804500020ADF80D
:101830000600ADF80C000E4C01A9204600F040F85F
:1018400001221146204600F030F80121204600F028
:1018500014F81D208DF8000001208DF801000321EF
:101860008DF802108DF803006846FFF71FFD7FBD5D
:1018700000040040C94301827047002904D0018858
:1018800041F0010101807047018821F001010180D0
:10189000704702460020138A0B4092890A40002BB1
:1018A00002D0002A00D001207047002A03D082898C
:1018B0000A438281704782898A438281704700008F
:1018C00030B50288164C174DA0420DD0A8420BD05F
:1018D000B0F1804F08D0144B984205D0134B98427A
:1018E00002D0134B984203D122F070034A881A4366
:1018F000104B984206D0104B984203D022F440730C
:101900000A891A4302804A68C2620A880285A04294
:1019100001D0A84201D1897A01860121818230BD9E
:1019200000000140000401400004004000080040A5
:10193000000C0040001000400014004010B5144C92
:101940000121204600F03FF918B10121204600F0A6
:1019500021F80821204600F036F918B10821204668
:1019600000F018F80221204600F02DF918B10221EC
:10197000204600F00FF82021204600F024F900282E
:1019800005D02046BDE81040202100F003B810BD6E
:10199000004800408A05C9430180704740F66A123A
:1019A0000A0A01219140C9430180704710B5028A9B
:1019B00022F470630A884C8822438C88C9880C43BF
:1019C00022431A43028210BD0021018041808180A0
:1019D000C1807047002904D0818941F40051818180
:1019E0007047818921F400518181704770B588B0BA
:1019F00001210920FFF74AFD01218804FFF754FD6A
:101A00002B4D284600F058F802A800F079F96846F6
:101A1000FFF7DAFF02218DF81C108DF81D1000244D
:101A20008DF81E4001208DF81F0040020690214EC7
:101A300006A93046FFF7B8FA072209213046FFF71A
:101A4000F1FAA815069006A93046FFF7ADFA07226D
:101A500008213046FFF7E6FA69462846FFF7A6FF59
:101A60004FF4E1300290ADF80C40ADF80E40ADF807
:101A70001040ADF814400C20ADF8120002A9284621
:101A800000F0DCF840F2255401222146284600F0FF
:101A9000BAF840F226612846FFF780FF2146284623
:101AA000FFF77CFF01212846FFF794FF08B070BDC7
:101AB00000480040000C024010B53749884209D167
:101AC00001211020FFF70CFD0021BDE8104010207F
:101AD000FFF706BD314988420AD101214C04204656
:101AE000FFF7F0FC2046BDE810400021FFF7EABCFC
:101AF0002B4988420AD101218C042046FFF7E2FCE1
:101B00002046BDE810400021FFF7DCBC2549884293
:101B10000AD10121CC042046FFF7D4FC2046BDE8C1
:101B200010400021FFF7CEBC1F4988420AD1012195
:101B30000C052046FFF7C6FC2046BDE810400021FA
:101B4000FFF7C0BC1949884209D101212020FFF7C5
:101B5000C7FC0021BDE810402020FFF7C1BC14499C
:101B600088420AD101218C072046FFF7ABFC2046B2
:101B7000BDE810400021FFF7A5BC0E4988420AD1FC
:101B8000440501212046FFF79DFC2046BDE810409A
:101B90000021FFF797BC10BD001001400044004039
:101BA00000480040004C004000500040001401403C
:101BB00000780040007C00400246002012880A4263
:101BC00000D00120704770B5002440F66A12C1F3BE
:101BD000421301F01F05012606FA05F2012B0CD075
:101BE000022B0DD0838A1340090A8E4000883040B2
:101BF0000BB100B10124204670BD83891340F3E787
:101C0000038A1340F0E710B540F66A13C1F342139C
:101C100001F01F040121A140012B07D0022B07D0A6
:101C200014303AB102680A43026010BD0C30F8E784
:101C30001030F6E702688A43026010BD7FB50446A3
:101C40000D46208A20F44051E88808432082A0896C
:101C500041F20C618843A9882A8911436A890243A9
:101C60001143A181A08A20F44071A8890843A08271
:101C70006846FFF743FC1E48844202D01D48844258
:101C800001D1039800E00298A189090408D500EB6E
:101C9000C00101EB001029684900B0FBF1F007E03A
:101CA00000EBC00101EB001029688900B0FBF1F0E6
:101CB0006422B0FBF2F109010B096FF018056B43C8
:101CC00000EB8300A3891D044FF0320307D503EB1B
:101CD000C000B0FBF2F000F00700084306E003EBA1
:101CE0000010B0FBF2F000F00F00084320817FBD30
:101CF0000010014000140140C1F3080181807047C9
:101D00004FF41651016000218180C18001810C22B5
:101D1000428181817047FEE702E008C8121F08C1B6
:101D2000002AFAD170477047002001E001C1121F5C
:101D3000002AFBD17047000010B504466FF0040084
:101D4000FFF706FD0649E008087000EB4002C2EB11
:101D5000C0104FF6FF7202EAC000488010BD0000BC
:101D60001600002070B501464FF40776B1FBF6F07F
:101D7000C4B206FB101504E0304600F027F8641EDC
:101D8000E4B2002CF8D1002D04D02846BDE8704004
:101D900000F01CB870BD00000B49097848434FF0B3
:101DA000E021486100238B61086940F0010008616F
:101DB0000869C20701D0C003FAD5086920F0010004
:101DC00008618B6170470000160000200B494988AC
:101DD00048434FF0E021486100238B61086940F0DF
:101DE000010008610869C20701D0C003FAD508697B
:101DF00020F0010008618B61704700001600002090
:101E000010B5FFF7A7FA04460A20FFF7ABFFFFF76C
:101E1000A1FAA04201D1204610BD002010BD000053
:101E2000A820FFF789FFFFF727FAFFF7DFFDFEF78E
:101E3000ADFBFFF7ABF9FFF7C5FA4FF4FA74204694
:101E4000FFF790FF00210846FEF7AEFF2046FFF7A0
:101E500089FF0023322201211846FEF729FFC820FE
:101E6000FFF79AFF0023322202211846FEF720FFD7
:101E7000C820FFF791FF0023322203211846FEF706
:101E800017FFC820FFF788FF0023322204211846DD
:101E9000FEF70EFFC820FFF77FFF00233222052147
:101EA0001846FEF705FFC820FFF776FF0023322211
:101EB00006211846FEF7FCFE002103220846FEF725
:101EC00035FF2046FFF74EFF42F2CF016420FFF7B7
:101ED000A3FCFFF765FB124D124F134CDFF84C804B
:101EE000DFF84C900026A660FFF78AFF2860FFF716
:101EF0006BF9387801280CD002280DD00328F2D1D4
:101F0000A3682268D8F80010D9F8000000F014F98E
:101F1000E9E7FFF7C1FBE6E7FFF794F8E3E7000026
:101F2000000000205E000020FC0000206400002073
:101F30006000002016481649164B00780B3100F05F
:101F4000F00208684968402A1AD009DC102A0FD02C
:101F5000202A11D0302A02D143F8130F596070475C
:101F6000502A11D0602AFAD143F82B0F59607047DC
:101F700043F8030F5960704743F80B0F59607047DF
:101F800043F81B0F5960704743F8230F596070479F
:101F9000DC0000207800002070B50024074D084EBA
:101FA000295D3046FFF7A8FE80213046FFF704FE8A
:101FB0000028F9D0641C332CF2DB70BD78000020BF
:101FC0000048004070B50D462DED028B1446032CE1
:101FD00003D0052C01D0022C00D14042FEF706FAB6
:101FE00041EC180B1C48661E50F82600FEF7FEF95F
:101FF0009FED1A1B53EC112BFEF789F953EC182BAC
:10200000FEF77FF9FEF703FA01466FF0180201FBB5
:1020100002F0A84200DD28466A42904200DA1046EB
:10202000002900DC494202290BDA0E4B06EBC602FE
:1020300003EBC202012182F834100B4A224402F859
:10204000011CE1B2BDEC028B03B2BDE8704040F26E
:10205000DC520020FEF7E6BEC400002074EFE192DF
:10206000E3385640580100206E00002070B50D4640
:102070002DED048B1446FEF7B9F9214A661E9FED3B
:10208000219B52F82620022C28D0032C26D0052C88
:1020900024D041EC180B1046FEF7A8F953EC192B8D
:1020A000FEF735F953EC182BFEF72BF9FEF7AFF9D5
:1020B000002808DD0025154A06EBC60102EBC10128
:1020C000012081F83400E1B2BDEC048B2BB241F267
:1020D0009412BDE870400020FEF7A4BE41EC180B3E
:1020E0005042FEF783F953EC192BFEF710F953EC2D
:1020F000182BFEF706F9FEF78AF96D42D8E70000C3
:10210000C400002074EFE192E338564058010020EB
:1021100010B507486422C2600023036105498C683A
:102120004968611A01F5B47141608360026010BDB5
:10213000FC0000205C0000202DE9FC5F01259FEDE4
:10214000810A0C1A04F5B474E61800EE906AF8EEF1
:10215000E01A00EE904AF8EEE00A81EEA01A8DED4A
:10216000001AE61A00EE906AB8EEE02A00EE904AF5
:10217000F8EEE00AC2EE201ACDED011AF0EE400AA8
:102180000024714E45B104EBC40506EBC50595F876
:1021900034500DB1012500E00025641C062CF1DB54
:1021A000002D7CD0694C2478012C78D10024DFF8F4
:1021B000A0814FF4B47C9FED672AA146022C4AD03F
:1021C000042C48D0012C46D004EBC40506EBC50511
:1021D0005F422F6200EE902AF8EEE00A61EEA00A5C
:1021E000FDEEE00AC5ED070A18F804508DB300258E
:1021F00008F8045075B304EBC40A06EBCA05AF6ACD
:1022000097FBFCFB0CFB1B7700EE907AF8EEE02AC4
:1022100000EE901AB8EEE03AF0EE400A33EE203AC3
:1022200073EE600A70EE820A70EEE22AD5ED080ABB
:10223000F8EEE00A72EEA00AFDEEE00A10EE907AE7
:1022400046F83A70D5ED070AF8EEE00AC5ED010A46
:1022500050E010E011E004EBC40506EBC5052B626D
:1022600000EE902AF8EEE00A61EE200AFDEEE00AA8
:10227000C5ED070AB8E70125BAE704EBC40A06EB87
:10228000CA05AF6A97FBFCFB0CFB1B7700EE907A4C
:10229000F8EEE02A00EE900AB8EEE03A00E03DE009
:1022A000F0EE400A33EE603A73EE600A70EE820A96
:1022B00070EEE22AD5ED080AF8EEE00A72EEE00AC6
:1022C000FDEEE00A10EE907A46F83A70D5ED070A76
:1022D000F8EEE02A00EE907AC7F5B477F8EEE00A5F
:1022E00062EEA02A00EE907AF8EEE00A82EEA03AC2
:1022F00085ED013A04EBC40706EBC70556F83770C5
:10230000D5F828A05744AF62D5ED010AC5ED0E0AF5
:1023100085F83490641C062CFFF650AF002404EBC3
:10232000C40006EBC000621C90ED0E0A806ABDEE90
:10233000C00A10EE101AFFF799FE641C062CEEDBA3
:10234000BDE8FC9F000000005801002004000020B0
:102350006800002000009C42782300080000002054
:10236000AC000000181D000824240008AC00002068
:102370005C060000281D00080000000001000000AD
:102380000001020304010203040607080900150006
:1023900008520000000000000000000000000000E3
:1023A00000000000000000000000014200000000EA
:1023B0000000000001000200030004000500060008
:1023C0000700080009000A000B000C000D000E00B9
:1023D0000F00100001000000630100002300000056
:1023E00000010101000000000000000000000000EA
:1023F0005AA53300000000000000000000000000AB
:1024000000000000000000000000000000000000CC
:1024100000000000000000000000000000000000BC
:0424200000000000B8
:040000050800018965
:00000001FF
